{
  "contractName": "InheritanceContract",
  "abi": [
    {
      "inputs": [
        {
          "internalType": "address payable",
          "name": "_recipient",
          "type": "address"
        }
      ],
      "stateMutability": "nonpayable",
      "type": "constructor"
    },
    {
      "inputs": [],
      "name": "isOwnerDecessed",
      "outputs": [
        {
          "internalType": "bool",
          "name": "",
          "type": "bool"
        }
      ],
      "stateMutability": "view",
      "type": "function",
      "constant": true
    },
    {
      "inputs": [],
      "name": "owner",
      "outputs": [
        {
          "internalType": "address",
          "name": "",
          "type": "address"
        }
      ],
      "stateMutability": "view",
      "type": "function",
      "constant": true
    },
    {
      "inputs": [],
      "name": "recipient",
      "outputs": [
        {
          "internalType": "address payable",
          "name": "",
          "type": "address"
        }
      ],
      "stateMutability": "view",
      "type": "function",
      "constant": true
    },
    {
      "stateMutability": "payable",
      "type": "receive",
      "payable": true
    },
    {
      "inputs": [],
      "name": "declareDecessed",
      "outputs": [],
      "stateMutability": "nonpayable",
      "type": "function"
    }
  ],
  "bytecode": "0x608060405234801561000f575f80fd5b506040516106b53803806106b58339818101604052810190610031919061012e565b3360015f6101000a81548173ffffffffffffffffffffffffffffffffffffffff021916908373ffffffffffffffffffffffffffffffffffffffff160217905550805f806101000a81548173ffffffffffffffffffffffffffffffffffffffff021916908373ffffffffffffffffffffffffffffffffffffffff1602179055505f600160146101000a81548160ff02191690831515021790555050610159565b5f80fd5b5f73ffffffffffffffffffffffffffffffffffffffff82169050919050565b5f6100fd826100d4565b9050919050565b61010d816100f3565b8114610117575f80fd5b50565b5f8151905061012881610104565b92915050565b5f60208284031215610143576101426100d0565b5b5f6101508482850161011a565b91505092915050565b61054f806101665f395ff3fe608060405260043610610042575f3560e01c806366d003ac1461004d5780636e2a2037146100775780638da5cb5b146100a15780639b606bb5146100cb57610049565b3661004957005b5f80fd5b348015610058575f80fd5b506100616100e1565b60405161006e9190610300565b60405180910390f35b348015610082575f80fd5b5061008b610104565b6040516100989190610333565b60405180910390f35b3480156100ac575f80fd5b506100b5610117565b6040516100c2919061036c565b60405180910390f35b3480156100d6575f80fd5b506100df61013c565b005b5f8054906101000a900473ffffffffffffffffffffffffffffffffffffffff1681565b600160149054906101000a900460ff1681565b60015f9054906101000a900473ffffffffffffffffffffffffffffffffffffffff1681565b60015f9054906101000a900473ffffffffffffffffffffffffffffffffffffffff1673ffffffffffffffffffffffffffffffffffffffff163373ffffffffffffffffffffffffffffffffffffffff16146101cb576040517f08c379a00000000000000000000000000000000000000000000000000000000081526004016101c290610405565b60405180910390fd5b600160149054906101000a900460ff1661021a576040517f08c379a000000000000000000000000000000000000000000000000000000000815260040161021190610493565b60405180910390fd5b5f471161025c576040517f08c379a0000000000000000000000000000000000000000000000000000000008152600401610253906104fb565b60405180910390fd5b5f8054906101000a900473ffffffffffffffffffffffffffffffffffffffff1673ffffffffffffffffffffffffffffffffffffffff166108fc4790811502906040515f60405180830381858888f193505050501580156102be573d5f803e3d5ffd5b50565b5f73ffffffffffffffffffffffffffffffffffffffff82169050919050565b5f6102ea826102c1565b9050919050565b6102fa816102e0565b82525050565b5f6020820190506103135f8301846102f1565b92915050565b5f8115159050919050565b61032d81610319565b82525050565b5f6020820190506103465f830184610324565b92915050565b5f610356826102c1565b9050919050565b6103668161034c565b82525050565b5f60208201905061037f5f83018461035d565b92915050565b5f82825260208201905092915050565b7f4f6e6c7920436f6e7472616374206f776e65722063616e2061636365737320745f8201527f6869732066756e6374696f6e0000000000000000000000000000000000000000602082015250565b5f6103ef602c83610385565b91506103fa82610395565b604082019050919050565b5f6020820190508181035f83015261041c816103e3565b9050919050565b7f4f776e65722068617368206265656e206465636c6172656420646563656173655f8201527f6400000000000000000000000000000000000000000000000000000000000000602082015250565b5f61047d602183610385565b915061048882610423565b604082019050919050565b5f6020820190508181035f8301526104aa81610471565b9050919050565b7f4e6f2066756e647320617661696c61626520666f722077697468647261776c005f82015250565b5f6104e5601f83610385565b91506104f0826104b1565b602082019050919050565b5f6020820190508181035f830152610512816104d9565b905091905056fea26469706673582212202da1d2059dfbc2fd5b1cef655009dcf13248930b2e85bbd04b6b830753dceb8664736f6c63430008150033",
  "immutableReferences": {},
  "source": "// SPDX-License-Identifier: GPL-3.0\n\n// import solidity\npragma solidity ^0.8.0;\n\n\n// first contract\ncontract InheritanceContract {\n    address payable public recipient;\n    address public owner;\n    bool public isOwnerDecessed;\n\n    constructor(address payable _recipient){\n        owner = msg.sender;\n        recipient = _recipient;\n        isOwnerDecessed = false;\n    }\n\n    modifier onlyOwner() {\n        require(msg.sender == owner, \"Only Contract owner can access this function\");\n        _;\n    }\n\n    modifier onlyRecipient(){\n        require(msg.sender == recipient, \"Only designated recipient can access this function\");\n        _;\n    }\n\n    function declareDecessed() external onlyOwner{\n        require(isOwnerDecessed, \"Owner hash been declared deceased\");\n        require(address(this).balance > 0, \"No funds availabe for withdrawl\");\n        recipient.transfer(address(this).balance);\n    }\n\n    // Fallback function to receive payments\n    receive() external payable {}\n\n}\n\n",
  "sourcePath": "/home/miraz/solidity-examples/solidity-linkedin-course/chapter2/contracts/simpleContract.sol",
  "compiler": {
    "name": "solc",
    "version": "0.8.21+commit.d9974bed.Emscripten.clang"
  },
  "schemaVersion": "3.4.16",
  "updatedAt": "2023-11-07T04:34:46.879Z",
  "networkType": "ethereum",
  "devdoc": {
    "kind": "dev",
    "methods": {},
    "version": 1
  },
  "userdoc": {
    "kind": "user",
    "methods": {},
    "version": 1
  }
}