{
  "contractName": "Ballot",
  "abi": [
    {
      "inputs": [
        {
          "internalType": "bytes32[]",
          "name": "proposalNames",
          "type": "bytes32[]"
        }
      ],
      "stateMutability": "nonpayable",
      "type": "constructor"
    },
    {
      "inputs": [],
      "name": "chairperson",
      "outputs": [
        {
          "internalType": "address",
          "name": "",
          "type": "address"
        }
      ],
      "stateMutability": "view",
      "type": "function",
      "constant": true
    },
    {
      "inputs": [
        {
          "internalType": "uint256",
          "name": "",
          "type": "uint256"
        }
      ],
      "name": "proposals",
      "outputs": [
        {
          "internalType": "bytes32",
          "name": "name",
          "type": "bytes32"
        },
        {
          "internalType": "uint256",
          "name": "voteCount",
          "type": "uint256"
        }
      ],
      "stateMutability": "view",
      "type": "function",
      "constant": true
    },
    {
      "inputs": [
        {
          "internalType": "address",
          "name": "",
          "type": "address"
        }
      ],
      "name": "voters",
      "outputs": [
        {
          "internalType": "uint256",
          "name": "weight",
          "type": "uint256"
        },
        {
          "internalType": "bool",
          "name": "voted",
          "type": "bool"
        },
        {
          "internalType": "address",
          "name": "delegate",
          "type": "address"
        },
        {
          "internalType": "uint256",
          "name": "vote",
          "type": "uint256"
        }
      ],
      "stateMutability": "view",
      "type": "function",
      "constant": true
    },
    {
      "inputs": [
        {
          "internalType": "address",
          "name": "voter",
          "type": "address"
        }
      ],
      "name": "giveRightToVote",
      "outputs": [],
      "stateMutability": "nonpayable",
      "type": "function"
    },
    {
      "inputs": [
        {
          "internalType": "address[]",
          "name": "voters_array",
          "type": "address[]"
        }
      ],
      "name": "giveRightToVote_array",
      "outputs": [],
      "stateMutability": "nonpayable",
      "type": "function"
    },
    {
      "inputs": [
        {
          "internalType": "address",
          "name": "to",
          "type": "address"
        }
      ],
      "name": "delegate",
      "outputs": [],
      "stateMutability": "nonpayable",
      "type": "function"
    },
    {
      "inputs": [
        {
          "internalType": "uint256",
          "name": "proposal",
          "type": "uint256"
        }
      ],
      "name": "vote",
      "outputs": [],
      "stateMutability": "nonpayable",
      "type": "function"
    },
    {
      "inputs": [],
      "name": "winningProposal_tie",
      "outputs": [
        {
          "internalType": "uint256[]",
          "name": "winningProposal_array",
          "type": "uint256[]"
        }
      ],
      "stateMutability": "view",
      "type": "function",
      "constant": true
    },
    {
      "inputs": [],
      "name": "winningProposal",
      "outputs": [
        {
          "internalType": "uint256",
          "name": "winningProposal_",
          "type": "uint256"
        }
      ],
      "stateMutability": "view",
      "type": "function",
      "constant": true
    },
    {
      "inputs": [],
      "name": "winnerName",
      "outputs": [
        {
          "internalType": "bytes32",
          "name": "winnerName_",
          "type": "bytes32"
        }
      ],
      "stateMutability": "view",
      "type": "function",
      "constant": true
    }
  ],
  "bytecode": "0x608060405234801562000010575f80fd5b5060405162001ac738038062001ac7833981810160405281019062000036919062000326565b335f806101000a81548173ffffffffffffffffffffffffffffffffffffffff021916908373ffffffffffffffffffffffffffffffffffffffff1602179055506001805f805f9054906101000a900473ffffffffffffffffffffffffffffffffffffffff1673ffffffffffffffffffffffffffffffffffffffff1673ffffffffffffffffffffffffffffffffffffffff1681526020019081526020015f205f01819055505f5b815181101562000169576002604051806040016040528084848151811062000108576200010762000375565b5b602002602001015181526020015f815250908060018154018082558091505060019003905f5260205f2090600202015f909190919091505f820151815f015560208201518160010155505080806200016090620003d8565b915050620000db565b505062000424565b5f604051905090565b5f80fd5b5f80fd5b5f80fd5b5f601f19601f8301169050919050565b7f4e487b71000000000000000000000000000000000000000000000000000000005f52604160045260245ffd5b620001ce8262000186565b810181811067ffffffffffffffff82111715620001f057620001ef62000196565b5b80604052505050565b5f6200020462000171565b9050620002128282620001c3565b919050565b5f67ffffffffffffffff82111562000234576200023362000196565b5b602082029050602081019050919050565b5f80fd5b5f819050919050565b6200025d8162000249565b811462000268575f80fd5b50565b5f815190506200027b8162000252565b92915050565b5f62000297620002918462000217565b620001f9565b90508083825260208201905060208402830185811115620002bd57620002bc62000245565b5b835b81811015620002ea5780620002d588826200026b565b845260208401935050602081019050620002bf565b5050509392505050565b5f82601f8301126200030b576200030a62000182565b5b81516200031d84826020860162000281565b91505092915050565b5f602082840312156200033e576200033d6200017a565b5b5f82015167ffffffffffffffff8111156200035e576200035d6200017e565b5b6200036c84828501620002f4565b91505092915050565b7f4e487b71000000000000000000000000000000000000000000000000000000005f52603260045260245ffd5b7f4e487b71000000000000000000000000000000000000000000000000000000005f52601160045260245ffd5b5f819050919050565b5f620003e482620003cf565b91507fffffffffffffffffffffffffffffffffffffffffffffffffffffffffffffffff8203620004195762000418620003a2565b5b600182019050919050565b61169580620004325f395ff3fe608060405234801561000f575f80fd5b506004361061009c575f3560e01c80639e7b8d61116100645780639e7b8d6114610145578063a3ec138d14610161578063b0227acf14610194578063b20d4de2146101b0578063e2ba53f0146101ce5761009c565b80630121b93f146100a0578063013cf08b146100bc5780632e4176cf146100ed5780635c19a95c1461010b578063609ff1bd14610127575b5f80fd5b6100ba60048036038101906100b59190610d64565b6101ec565b005b6100d660048036038101906100d19190610d64565b610327565b6040516100e4929190610db6565b60405180910390f35b6100f5610356565b6040516101029190610e1c565b60405180910390f35b61012560048036038101906101209190610e5f565b610379565b005b61012f610753565b60405161013c9190610e8a565b60405180910390f35b61015f600480360381019061015a9190610e5f565b6107d4565b005b61017b60048036038101906101769190610e5f565b61097f565b60405161018b9493929190610ebd565b60405180910390f35b6101ae60048036038101906101a99190611050565b6109d7565b005b6101b8610bb6565b6040516101c5919061114e565b60405180910390f35b6101d6610cf0565b6040516101e3919061116e565b60405180910390f35b5f60015f3373ffffffffffffffffffffffffffffffffffffffff1673ffffffffffffffffffffffffffffffffffffffff1681526020019081526020015f2090505f815f015403610271576040517f08c379a0000000000000000000000000000000000000000000000000000000008152600401610268906111e1565b60405180910390fd5b806001015f9054906101000a900460ff16156102c2576040517f08c379a00000000000000000000000000000000000000000000000000000000081526004016102b990611249565b60405180910390fd5b6001816001015f6101000a81548160ff021916908315150217905550818160020181905550805f0154600283815481106102ff576102fe611267565b5b905f5260205f2090600202016001015f82825461031c91906112c1565b925050819055505050565b60028181548110610336575f80fd5b905f5260205f2090600202015f91509050805f0154908060010154905082565b5f8054906101000a900473ffffffffffffffffffffffffffffffffffffffff1681565b5f60015f3373ffffffffffffffffffffffffffffffffffffffff1673ffffffffffffffffffffffffffffffffffffffff1681526020019081526020015f2090505f815f0154036103fe576040517f08c379a00000000000000000000000000000000000000000000000000000000081526004016103f59061133e565b60405180910390fd5b806001015f9054906101000a900460ff161561044f576040517f08c379a0000000000000000000000000000000000000000000000000000000008152600401610446906113a6565b60405180910390fd5b3373ffffffffffffffffffffffffffffffffffffffff168273ffffffffffffffffffffffffffffffffffffffff16036104bd576040517f08c379a00000000000000000000000000000000000000000000000000000000081526004016104b49061140e565b60405180910390fd5b5b5f73ffffffffffffffffffffffffffffffffffffffff1660015f8473ffffffffffffffffffffffffffffffffffffffff1673ffffffffffffffffffffffffffffffffffffffff1681526020019081526020015f2060010160019054906101000a900473ffffffffffffffffffffffffffffffffffffffff1673ffffffffffffffffffffffffffffffffffffffff16146106275760015f8373ffffffffffffffffffffffffffffffffffffffff1673ffffffffffffffffffffffffffffffffffffffff1681526020019081526020015f2060010160019054906101000a900473ffffffffffffffffffffffffffffffffffffffff1691503373ffffffffffffffffffffffffffffffffffffffff168273ffffffffffffffffffffffffffffffffffffffff1603610622576040517f08c379a000000000000000000000000000000000000000000000000000000000815260040161061990611476565b60405180910390fd5b6104be565b5f60015f8473ffffffffffffffffffffffffffffffffffffffff1673ffffffffffffffffffffffffffffffffffffffff1681526020019081526020015f2090506001815f01541015610677575f80fd5b6001826001015f6101000a81548160ff021916908315150217905550828260010160016101000a81548173ffffffffffffffffffffffffffffffffffffffff021916908373ffffffffffffffffffffffffffffffffffffffff160217905550806001015f9054906101000a900460ff161561073157815f0154600282600201548154811061070857610707611267565b5b905f5260205f2090600202016001015f82825461072591906112c1565b9250508190555061074e565b815f0154815f015f82825461074691906112c1565b925050819055505b505050565b5f805f90505f5b6002805490508110156107cf57816002828154811061077c5761077b611267565b5b905f5260205f2090600202016001015411156107bc57600281815481106107a6576107a5611267565b5b905f5260205f2090600202016001015491508092505b80806107c790611494565b91505061075a565b505090565b5f8054906101000a900473ffffffffffffffffffffffffffffffffffffffff1673ffffffffffffffffffffffffffffffffffffffff163373ffffffffffffffffffffffffffffffffffffffff1614610861576040517f08c379a00000000000000000000000000000000000000000000000000000000081526004016108589061154b565b60405180910390fd5b60015f8273ffffffffffffffffffffffffffffffffffffffff1673ffffffffffffffffffffffffffffffffffffffff1681526020019081526020015f206001015f9054906101000a900460ff16156108ee576040517f08c379a00000000000000000000000000000000000000000000000000000000081526004016108e5906115b3565b60405180910390fd5b5f60015f8373ffffffffffffffffffffffffffffffffffffffff1673ffffffffffffffffffffffffffffffffffffffff1681526020019081526020015f205f015414610938575f80fd5b6001805f8373ffffffffffffffffffffffffffffffffffffffff1673ffffffffffffffffffffffffffffffffffffffff1681526020019081526020015f205f018190555050565b6001602052805f5260405f205f91509050805f015490806001015f9054906101000a900460ff16908060010160019054906101000a900473ffffffffffffffffffffffffffffffffffffffff16908060020154905084565b5f8054906101000a900473ffffffffffffffffffffffffffffffffffffffff1673ffffffffffffffffffffffffffffffffffffffff163373ffffffffffffffffffffffffffffffffffffffff1614610a64576040517f08c379a0000000000000000000000000000000000000000000000000000000008152600401610a5b90611641565b60405180910390fd5b5f5b8151811015610bb25760015f838381518110610a8557610a84611267565b5b602002602001015173ffffffffffffffffffffffffffffffffffffffff1673ffffffffffffffffffffffffffffffffffffffff1681526020019081526020015f206001015f9054906101000a900460ff16158015610b3b57505f60015f848481518110610af557610af4611267565b5b602002602001015173ffffffffffffffffffffffffffffffffffffffff1673ffffffffffffffffffffffffffffffffffffffff1681526020019081526020015f205f0154145b15610b9f576001805f848481518110610b5757610b56611267565b5b602002602001015173ffffffffffffffffffffffffffffffffffffffff1673ffffffffffffffffffffffffffffffffffffffff1681526020019081526020015f205f01819055505b8080610baa90611494565b915050610a66565b5050565b60605f60028054905067ffffffffffffffff811115610bd857610bd7610f14565b5b604051908082528060200260200182016040528015610c065781602001602082028036833780820191505090505b5091505f5b600280549050811015610c7d578160028281548110610c2d57610c2c611267565b5b905f5260205f209060020201600101541115610c6a5760028181548110610c5757610c56611267565b5b905f5260205f2090600202016001015491505b8080610c7590611494565b915050610c0b565b505f5b600280549050811015610ceb578160028281548110610ca257610ca1611267565b5b905f5260205f2090600202016001015403610cd85781838281518110610ccb57610cca611267565b5b6020026020010181815250505b8080610ce390611494565b915050610c80565b505090565b5f6002610cfb610753565b81548110610d0c57610d0b611267565b5b905f5260205f2090600202015f0154905090565b5f604051905090565b5f80fd5b5f80fd5b5f819050919050565b610d4381610d31565b8114610d4d575f80fd5b50565b5f81359050610d5e81610d3a565b92915050565b5f60208284031215610d7957610d78610d29565b5b5f610d8684828501610d50565b91505092915050565b5f819050919050565b610da181610d8f565b82525050565b610db081610d31565b82525050565b5f604082019050610dc95f830185610d98565b610dd66020830184610da7565b9392505050565b5f73ffffffffffffffffffffffffffffffffffffffff82169050919050565b5f610e0682610ddd565b9050919050565b610e1681610dfc565b82525050565b5f602082019050610e2f5f830184610e0d565b92915050565b610e3e81610dfc565b8114610e48575f80fd5b50565b5f81359050610e5981610e35565b92915050565b5f60208284031215610e7457610e73610d29565b5b5f610e8184828501610e4b565b91505092915050565b5f602082019050610e9d5f830184610da7565b92915050565b5f8115159050919050565b610eb781610ea3565b82525050565b5f608082019050610ed05f830187610da7565b610edd6020830186610eae565b610eea6040830185610e0d565b610ef76060830184610da7565b95945050505050565b5f80fd5b5f601f19601f8301169050919050565b7f4e487b71000000000000000000000000000000000000000000000000000000005f52604160045260245ffd5b610f4a82610f04565b810181811067ffffffffffffffff82111715610f6957610f68610f14565b5b80604052505050565b5f610f7b610d20565b9050610f878282610f41565b919050565b5f67ffffffffffffffff821115610fa657610fa5610f14565b5b602082029050602081019050919050565b5f80fd5b5f610fcd610fc884610f8c565b610f72565b90508083825260208201905060208402830185811115610ff057610fef610fb7565b5b835b8181101561101957806110058882610e4b565b845260208401935050602081019050610ff2565b5050509392505050565b5f82601f83011261103757611036610f00565b5b8135611047848260208601610fbb565b91505092915050565b5f6020828403121561106557611064610d29565b5b5f82013567ffffffffffffffff81111561108257611081610d2d565b5b61108e84828501611023565b91505092915050565b5f81519050919050565b5f82825260208201905092915050565b5f819050602082019050919050565b6110c981610d31565b82525050565b5f6110da83836110c0565b60208301905092915050565b5f602082019050919050565b5f6110fc82611097565b61110681856110a1565b9350611111836110b1565b805f5b8381101561114157815161112888826110cf565b9750611133836110e6565b925050600181019050611114565b5085935050505092915050565b5f6020820190508181035f83015261116681846110f2565b905092915050565b5f6020820190506111815f830184610d98565b92915050565b5f82825260208201905092915050565b7f486173206e6f20726967687420746f20766f74650000000000000000000000005f82015250565b5f6111cb601483611187565b91506111d682611197565b602082019050919050565b5f6020820190508181035f8301526111f8816111bf565b9050919050565b7f416c726561647920766f7465642e0000000000000000000000000000000000005f82015250565b5f611233600e83611187565b915061123e826111ff565b602082019050919050565b5f6020820190508181035f83015261126081611227565b9050919050565b7f4e487b71000000000000000000000000000000000000000000000000000000005f52603260045260245ffd5b7f4e487b71000000000000000000000000000000000000000000000000000000005f52601160045260245ffd5b5f6112cb82610d31565b91506112d683610d31565b92508282019050808211156112ee576112ed611294565b5b92915050565b7f596f752068617665206e6f20726967687420746f20766f7465000000000000005f82015250565b5f611328601983611187565b9150611333826112f4565b602082019050919050565b5f6020820190508181035f8301526113558161131c565b9050919050565b7f596f7520616c726561647920766f7465642e00000000000000000000000000005f82015250565b5f611390601283611187565b915061139b8261135c565b602082019050919050565b5f6020820190508181035f8301526113bd81611384565b9050919050565b7f53656c662d64656c65676174696f6e20697320646973616c6c6f7765642e00005f82015250565b5f6113f8601e83611187565b9150611403826113c4565b602082019050919050565b5f6020820190508181035f830152611425816113ec565b9050919050565b7f466f756e64206c6f6f7020696e2064656c65676174696f6e2e000000000000005f82015250565b5f611460601983611187565b915061146b8261142c565b602082019050919050565b5f6020820190508181035f83015261148d81611454565b9050919050565b5f61149e82610d31565b91507fffffffffffffffffffffffffffffffffffffffffffffffffffffffffffffffff82036114d0576114cf611294565b5b600182019050919050565b7f4f6e6c79206368616972706572736f6e2063616e2067697665207269676874205f8201527f746f20766f74652e000000000000000000000000000000000000000000000000602082015250565b5f611535602883611187565b9150611540826114db565b604082019050919050565b5f6020820190508181035f83015261156281611529565b9050919050565b7f54686520766f74657220616c726561647920766f7465642e00000000000000005f82015250565b5f61159d601883611187565b91506115a882611569565b602082019050919050565b5f6020820190508181035f8301526115ca81611591565b9050919050565b7f4f6e6c79206368616972706572736f6e2063616e2067697665207269676874205f8201527f746f20766f746500000000000000000000000000000000000000000000000000602082015250565b5f61162b602783611187565b9150611636826115d1565b604082019050919050565b5f6020820190508181035f8301526116588161161f565b905091905056fea2646970667358221220d83354b93c17d5eb16d38c3e3f02104a3e1299ea64cdfb8ab9795c5d0af55df564736f6c63430008150033",
  "immutableReferences": {},
  "source": "// SPDX-License-Identifier: GPL-3.0\npragma solidity >=0.7.0 <0.9.0;\n/// @title Voting with delegation.\ncontract Ballot {\n    // This declares a new complex type which will\n    // be used for variables later.\n    // It will represent a single voter.\n    struct Voter {\n        uint weight; // weight is accumulated by delegation\n        bool voted;  // if true, that person already voted\n        address delegate; // person delegated to\n        uint vote;   // index of the voted proposal\n    }\n\n    // This is a type for a single proposal.\n    struct Proposal {\n        bytes32 name;   // short name (up to 32 bytes)\n        uint voteCount; // number of accumulated votes\n    }\n\n    address public chairperson;\n    // uint[] public winningProposal_array;\n\n    // This declares a state variable that\n    // stores a `Voter` struct for each possible address.\n    mapping(address => Voter) public voters;\n\n    // A dynamically-sized array of `Proposal` structs.\n    Proposal[] public proposals;\n\n    /// Create a new ballot to choose one of `proposalNames`.\n    constructor(bytes32[] memory proposalNames) {\n        chairperson = msg.sender;\n        voters[chairperson].weight = 1;\n\n        // For each of the provided proposal names,\n        // create a new proposal object and add it\n        // to the end of the array.\n        for (uint i = 0; i < proposalNames.length; i++) {\n            // `Proposal({...})` creates a temporary\n            // Proposal object and `proposals.push(...)`\n            // appends it to the end of `proposals`.\n            proposals.push(Proposal({\n                name: proposalNames[i],\n                voteCount: 0\n            }));\n        }\n    }\n\n    // Give `voter` the right to vote on this ballot.\n    // May only be called by `chairperson`.\n    function giveRightToVote(address voter) external {\n        // If the first argument of `require` evaluates\n        // to `false`, execution terminates and all\n        // changes to the state and to Ether balances\n        // are reverted.\n        // This used to consume all gas in old EVM versions, but\n        // not anymore.\n        // It is often a good idea to use `require` to check if\n        // functions are called correctly.\n        // As a second argument, you can also provide an\n        // explanation about what went wrong.\n        require(\n            msg.sender == chairperson,\n            \"Only chairperson can give right to vote.\"\n        );\n        require(\n            !voters[voter].voted,\n            \"The voter already voted.\"\n        );\n        require(voters[voter].weight == 0);\n        voters[voter].weight = 1;\n    }\n\n    function giveRightToVote_array(address[] memory voters_array) external {\n        require(\n            msg.sender == chairperson,\n            \"Only chairperson can give right to vote\"\n        );\n        for (uint v = 0; v < voters_array.length; v++) {\n            // require(\n            //     !voters[voters_array[v]].voted,\n            //     \"The voter already voted\"\n            // );\n            if (!voters[voters_array[v]].voted && voters[voters_array[v]].weight == 0 ){\n                voters[voters_array[v]].weight = 1;\n            }\n        }\n    }\n\n    /// Delegate your vote to the voter `to`.\n    function delegate(address to) external {\n        // assigns reference\n        Voter storage sender = voters[msg.sender];\n        require(sender.weight != 0, \"You have no right to vote\");\n        require(!sender.voted, \"You already voted.\");\n\n        require(to != msg.sender, \"Self-delegation is disallowed.\");\n\n        // Forward the delegation as long as\n        // `to` also delegated.\n        // In general, such loops are very dangerous,\n        // because if they run too long, they might\n        // need more gas than is available in a block.\n        // In this case, the delegation will not be executed,\n        // but in other situations, such loops might\n        // cause a contract to get \"stuck\" completely.\n        while (voters[to].delegate != address(0)) {\n            to = voters[to].delegate;\n\n            // We found a loop in the delegation, not allowed.\n            require(to != msg.sender, \"Found loop in delegation.\");\n        }\n\n        Voter storage delegate_ = voters[to];\n\n        // Voters cannot delegate to accounts that cannot vote.\n        require(delegate_.weight >= 1);\n\n        // Since `sender` is a reference, this\n        // modifies `voters[msg.sender]`.\n        sender.voted = true;\n        sender.delegate = to;\n\n        if (delegate_.voted) {\n            // If the delegate already voted,\n            // directly add to the number of votes\n            proposals[delegate_.vote].voteCount += sender.weight;\n        } else {\n            // If the delegate did not vote yet,\n            // add to her weight.\n            delegate_.weight += sender.weight;\n        }\n    }\n\n    /// Give your vote (including votes delegated to you)\n    /// to proposal `proposals[proposal].name`.\n    function vote(uint proposal) external {\n        Voter storage sender = voters[msg.sender];\n        require(sender.weight != 0, \"Has no right to vote\");\n        require(!sender.voted, \"Already voted.\");\n        sender.voted = true;\n        sender.vote = proposal;\n\n        // If `proposal` is out of the range of the array,\n        // this will throw automatically and revert all\n        // changes.\n        proposals[proposal].voteCount += sender.weight;\n    }\n\n    /// @dev Computes the winning proposal taking all\n    /// previous votes into account.\n    function winningProposal_tie() public view\n            returns (uint[] memory winningProposal_array)\n    {\n        uint winningVoteCount = 0;\n        winningProposal_array = new uint[](proposals.length);\n        // uint[] memory numbers\n        for (uint p = 0; p < proposals.length; p++) {\n            if (proposals[p].voteCount > winningVoteCount) {\n                winningVoteCount = proposals[p].voteCount;\n            }\n        }\n\n        for (uint p = 0; p < proposals.length; p++) {\n            if (proposals[p].voteCount == winningVoteCount) {\n                winningProposal_array[p] = winningVoteCount;\n            }\n        }\n        // return winningProposal_array;\n    }\n\n        function winningProposal() public view\n            returns (uint winningProposal_)\n    {\n        uint winningVoteCount = 0;\n        for (uint p = 0; p < proposals.length; p++) {\n            if (proposals[p].voteCount > winningVoteCount) {\n                winningVoteCount = proposals[p].voteCount;\n                winningProposal_ = p;\n            }\n        }\n    }\n\n    // Calls winningProposal() function to get the index\n    // of the winner contained in the proposals array and then\n    // returns the name of the winner\n    function winnerName() external view\n            returns (bytes32 winnerName_)\n    {\n        winnerName_ = proposals[winningProposal()].name;\n    }\n}",
  "sourcePath": "/home/miraz/solidity-examples/official-solidity-example/voting_example/contracts/voting.sol",
  "compiler": {
    "name": "solc",
    "version": "0.8.21+commit.d9974bed.Emscripten.clang"
  },
  "schemaVersion": "3.4.16",
  "updatedAt": "2023-11-21T01:22:59.169Z",
  "networkType": "ethereum",
  "devdoc": {
    "kind": "dev",
    "methods": {
      "winningProposal_tie()": {
        "details": "Computes the winning proposal taking all previous votes into account."
      }
    },
    "title": "Voting with delegation.",
    "version": 1
  },
  "userdoc": {
    "kind": "user",
    "methods": {
      "constructor": {
        "notice": "Create a new ballot to choose one of `proposalNames`."
      },
      "delegate(address)": {
        "notice": "Delegate your vote to the voter `to`."
      },
      "vote(uint256)": {
        "notice": "Give your vote (including votes delegated to you) to proposal `proposals[proposal].name`."
      }
    },
    "version": 1
  }
}